{
  "_format": "hh-sol-artifact-1",
  "contractName": "GuessGame",
  "sourceName": "contracts/GuessGame.sol",
  "abi": [
    {
      "inputs": [
        {
          "internalType": "address",
          "name": "initialOwner",
          "type": "address"
        }
      ],
      "stateMutability": "nonpayable",
      "type": "constructor"
    },
    {
      "inputs": [
        {
          "internalType": "address",
          "name": "owner",
          "type": "address"
        }
      ],
      "name": "OwnableInvalidOwner",
      "type": "error"
    },
    {
      "inputs": [
        {
          "internalType": "address",
          "name": "account",
          "type": "address"
        }
      ],
      "name": "OwnableUnauthorizedAccount",
      "type": "error"
    },
    {
      "anonymous": false,
      "inputs": [
        {
          "indexed": false,
          "internalType": "address",
          "name": "player",
          "type": "address"
        },
        {
          "indexed": false,
          "internalType": "uint256",
          "name": "guessedNumber",
          "type": "uint256"
        },
        {
          "indexed": false,
          "internalType": "bool",
          "name": "won",
          "type": "bool"
        }
      ],
      "name": "NumberGuessed",
      "type": "event"
    },
    {
      "anonymous": false,
      "inputs": [
        {
          "indexed": true,
          "internalType": "address",
          "name": "previousOwner",
          "type": "address"
        },
        {
          "indexed": true,
          "internalType": "address",
          "name": "newOwner",
          "type": "address"
        }
      ],
      "name": "OwnershipTransferred",
      "type": "event"
    },
    {
      "anonymous": false,
      "inputs": [
        {
          "indexed": false,
          "internalType": "address",
          "name": "player",
          "type": "address"
        },
        {
          "indexed": false,
          "internalType": "uint256",
          "name": "points",
          "type": "uint256"
        }
      ],
      "name": "PointsAwarded",
      "type": "event"
    },
    {
      "inputs": [],
      "name": "betAmount",
      "outputs": [
        {
          "internalType": "uint256",
          "name": "",
          "type": "uint256"
        }
      ],
      "stateMutability": "view",
      "type": "function"
    },
    {
      "inputs": [
        {
          "internalType": "address",
          "name": "_player",
          "type": "address"
        }
      ],
      "name": "getPoints",
      "outputs": [
        {
          "internalType": "uint256",
          "name": "",
          "type": "uint256"
        }
      ],
      "stateMutability": "view",
      "type": "function"
    },
    {
      "inputs": [
        {
          "internalType": "uint256",
          "name": "_guess",
          "type": "uint256"
        }
      ],
      "name": "guess",
      "outputs": [],
      "stateMutability": "payable",
      "type": "function"
    },
    {
      "inputs": [],
      "name": "owner",
      "outputs": [
        {
          "internalType": "address",
          "name": "",
          "type": "address"
        }
      ],
      "stateMutability": "view",
      "type": "function"
    },
    {
      "inputs": [
        {
          "internalType": "address",
          "name": "",
          "type": "address"
        }
      ],
      "name": "playerPoints",
      "outputs": [
        {
          "internalType": "uint256",
          "name": "",
          "type": "uint256"
        }
      ],
      "stateMutability": "view",
      "type": "function"
    },
    {
      "inputs": [],
      "name": "renounceOwnership",
      "outputs": [],
      "stateMutability": "nonpayable",
      "type": "function"
    },
    {
      "inputs": [
        {
          "internalType": "uint256",
          "name": "_number",
          "type": "uint256"
        }
      ],
      "name": "setNumber",
      "outputs": [],
      "stateMutability": "nonpayable",
      "type": "function"
    },
    {
      "inputs": [
        {
          "internalType": "address",
          "name": "newOwner",
          "type": "address"
        }
      ],
      "name": "transferOwnership",
      "outputs": [],
      "stateMutability": "nonpayable",
      "type": "function"
    },
    {
      "inputs": [],
      "name": "withdraw",
      "outputs": [],
      "stateMutability": "nonpayable",
      "type": "function"
    }
  ],
  "bytecode": "0x608060405260056001556402540be40060025534801561001e57600080fd5b50604051610cd1380380610cd1833981810160405281019061004091906101f0565b80600073ffffffffffffffffffffffffffffffffffffffff168173ffffffffffffffffffffffffffffffffffffffff16036100b35760006040517f1e4fbdf70000000000000000000000000000000000000000000000000000000081526004016100aa919061022c565b60405180910390fd5b6100c2816100c960201b60201c565b5050610247565b60008060009054906101000a900473ffffffffffffffffffffffffffffffffffffffff169050816000806101000a81548173ffffffffffffffffffffffffffffffffffffffff021916908373ffffffffffffffffffffffffffffffffffffffff1602179055508173ffffffffffffffffffffffffffffffffffffffff168173ffffffffffffffffffffffffffffffffffffffff167f8be0079c531659141344cd1fd0a4f28419497f9722a3daafe3b4186f6b6457e060405160405180910390a35050565b600080fd5b600073ffffffffffffffffffffffffffffffffffffffff82169050919050565b60006101bd82610192565b9050919050565b6101cd816101b2565b81146101d857600080fd5b50565b6000815190506101ea816101c4565b92915050565b6000602082840312156102065761020561018d565b5b6000610214848285016101db565b91505092915050565b610226816101b2565b82525050565b6000602082019050610241600083018461021d565b92915050565b610a7b806102566000396000f3fe6080604052600436106100865760003560e01c80639189fec1116100595780639189fec11461010d5780639b211fc414610129578063d24257c014610166578063ee204abb14610191578063f2fde38b146101ce57610086565b80633ccfd60b1461008b5780633fb5c1cb146100a2578063715018a6146100cb5780638da5cb5b146100e2575b600080fd5b34801561009757600080fd5b506100a06101f7565b005b3480156100ae57600080fd5b506100c960048036038101906100c49190610772565b61024f565b005b3480156100d757600080fd5b506100e06102b1565b005b3480156100ee57600080fd5b506100f76102c5565b60405161010491906107e0565b60405180910390f35b61012760048036038101906101229190610772565b6102ee565b005b34801561013557600080fd5b50610150600480360381019061014b9190610827565b6104f7565b60405161015d9190610863565b60405180910390f35b34801561017257600080fd5b5061017b61050f565b6040516101889190610863565b60405180910390f35b34801561019d57600080fd5b506101b860048036038101906101b39190610827565b610515565b6040516101c59190610863565b60405180910390f35b3480156101da57600080fd5b506101f560048036038101906101f09190610827565b61055e565b005b6101ff6105e4565b6102076102c5565b73ffffffffffffffffffffffffffffffffffffffff166108fc479081150290604051600060405180830381858888f1935050505015801561024c573d6000803e3d6000fd5b50565b6102576105e4565b6000811180156102685750600a8111155b6102a7576040517f08c379a000000000000000000000000000000000000000000000000000000000815260040161029e906108db565b60405180910390fd5b8060018190555050565b6102b96105e4565b6102c3600061066b565b565b60008060009054906101000a900473ffffffffffffffffffffffffffffffffffffffff16905090565b6002543414610332576040517f08c379a000000000000000000000000000000000000000000000000000000000815260040161032990610947565b60405180910390fd5b6000811180156103435750600a8111155b610382576040517f08c379a0000000000000000000000000000000000000000000000000000000008152600401610379906108db565b60405180910390fd5b6005600360003373ffffffffffffffffffffffffffffffffffffffff1673ffffffffffffffffffffffffffffffffffffffff16815260200190815260200160002060008282546103d29190610996565b92505081905550600060015482149050801561044057600f600360003373ffffffffffffffffffffffffffffffffffffffff1673ffffffffffffffffffffffffffffffffffffffff16815260200190815260200160002060008282546104389190610996565b925050819055505b7fcfbda218c98934beefa95245526f54a46017a4fb99deb929697333c93441ce12338383604051610473939291906109e5565b60405180910390a17f900825d4808e50002c1a3614c809eb06d2d7142338f0dec06ed9a4057c8a8c9933600360003373ffffffffffffffffffffffffffffffffffffffff1673ffffffffffffffffffffffffffffffffffffffff168152602001908152602001600020546040516104eb929190610a1c565b60405180910390a15050565b60036020528060005260406000206000915090505481565b60025481565b6000600360008373ffffffffffffffffffffffffffffffffffffffff1673ffffffffffffffffffffffffffffffffffffffff168152602001908152602001600020549050919050565b6105666105e4565b600073ffffffffffffffffffffffffffffffffffffffff168173ffffffffffffffffffffffffffffffffffffffff16036105d85760006040517f1e4fbdf70000000000000000000000000000000000000000000000000000000081526004016105cf91906107e0565b60405180910390fd5b6105e18161066b565b50565b6105ec61072f565b73ffffffffffffffffffffffffffffffffffffffff1661060a6102c5565b73ffffffffffffffffffffffffffffffffffffffff16146106695761062d61072f565b6040517f118cdaa700000000000000000000000000000000000000000000000000000000815260040161066091906107e0565b60405180910390fd5b565b60008060009054906101000a900473ffffffffffffffffffffffffffffffffffffffff169050816000806101000a81548173ffffffffffffffffffffffffffffffffffffffff021916908373ffffffffffffffffffffffffffffffffffffffff1602179055508173ffffffffffffffffffffffffffffffffffffffff168173ffffffffffffffffffffffffffffffffffffffff167f8be0079c531659141344cd1fd0a4f28419497f9722a3daafe3b4186f6b6457e060405160405180910390a35050565b600033905090565b600080fd5b6000819050919050565b61074f8161073c565b811461075a57600080fd5b50565b60008135905061076c81610746565b92915050565b60006020828403121561078857610787610737565b5b60006107968482850161075d565b91505092915050565b600073ffffffffffffffffffffffffffffffffffffffff82169050919050565b60006107ca8261079f565b9050919050565b6107da816107bf565b82525050565b60006020820190506107f560008301846107d1565b92915050565b610804816107bf565b811461080f57600080fd5b50565b600081359050610821816107fb565b92915050565b60006020828403121561083d5761083c610737565b5b600061084b84828501610812565b91505092915050565b61085d8161073c565b82525050565b60006020820190506108786000830184610854565b92915050565b600082825260208201905092915050565b7f4e756d626572206d757374206265206265747765656e203120616e6420313000600082015250565b60006108c5601f8361087e565b91506108d08261088f565b602082019050919050565b600060208201905081810360008301526108f4816108b8565b9050919050565b7f496e636f72726563742062657420616d6f756e74000000000000000000000000600082015250565b600061093160148361087e565b915061093c826108fb565b602082019050919050565b6000602082019050818103600083015261096081610924565b9050919050565b7f4e487b7100000000000000000000000000000000000000000000000000000000600052601160045260246000fd5b60006109a18261073c565b91506109ac8361073c565b92508282019050808211156109c4576109c3610967565b5b92915050565b60008115159050919050565b6109df816109ca565b82525050565b60006060820190506109fa60008301866107d1565b610a076020830185610854565b610a1460408301846109d6565b949350505050565b6000604082019050610a3160008301856107d1565b610a3e6020830184610854565b939250505056fea2646970667358221220ebc1519f668ce1754c7b5a004eccb33248617fe38900c5049257ae708468384364736f6c634300081b0033",
  "linkReferences": {},
  "deployedLinkReferences": {}
}