{
  "_format": "hh-sol-artifact-1",
  "contractName": "GuessGame",
  "sourceName": "contracts/GuessGame.sol",
  "abi": [
    {
      "inputs": [
        {
          "internalType": "address",
          "name": "initialOwner",
          "type": "address"
        }
      ],
      "stateMutability": "nonpayable",
      "type": "constructor"
    },
    {
      "inputs": [
        {
          "internalType": "address",
          "name": "owner",
          "type": "address"
        }
      ],
      "name": "OwnableInvalidOwner",
      "type": "error"
    },
    {
      "inputs": [
        {
          "internalType": "address",
          "name": "account",
          "type": "address"
        }
      ],
      "name": "OwnableUnauthorizedAccount",
      "type": "error"
    },
    {
      "anonymous": false,
      "inputs": [
        {
          "indexed": false,
          "internalType": "address",
          "name": "player",
          "type": "address"
        },
        {
          "indexed": false,
          "internalType": "uint256",
          "name": "guessedNumber",
          "type": "uint256"
        },
        {
          "indexed": false,
          "internalType": "bool",
          "name": "won",
          "type": "bool"
        }
      ],
      "name": "NumberGuessed",
      "type": "event"
    },
    {
      "anonymous": false,
      "inputs": [
        {
          "indexed": true,
          "internalType": "address",
          "name": "previousOwner",
          "type": "address"
        },
        {
          "indexed": true,
          "internalType": "address",
          "name": "newOwner",
          "type": "address"
        }
      ],
      "name": "OwnershipTransferred",
      "type": "event"
    },
    {
      "anonymous": false,
      "inputs": [
        {
          "indexed": false,
          "internalType": "address",
          "name": "player",
          "type": "address"
        },
        {
          "indexed": false,
          "internalType": "uint256",
          "name": "points",
          "type": "uint256"
        }
      ],
      "name": "PointsAwarded",
      "type": "event"
    },
    {
      "inputs": [],
      "name": "betAmount",
      "outputs": [
        {
          "internalType": "uint256",
          "name": "",
          "type": "uint256"
        }
      ],
      "stateMutability": "view",
      "type": "function"
    },
    {
      "inputs": [],
      "name": "forcedNewNumber",
      "outputs": [],
      "stateMutability": "nonpayable",
      "type": "function"
    },
    {
      "inputs": [],
      "name": "getBlockInfo",
      "outputs": [
        {
          "internalType": "uint256",
          "name": "timestamp",
          "type": "uint256"
        },
        {
          "internalType": "uint256",
          "name": "blockNumber",
          "type": "uint256"
        },
        {
          "internalType": "bytes32",
          "name": "prevHash",
          "type": "bytes32"
        }
      ],
      "stateMutability": "view",
      "type": "function"
    },
    {
      "inputs": [
        {
          "internalType": "address",
          "name": "_player",
          "type": "address"
        }
      ],
      "name": "getPoints",
      "outputs": [
        {
          "internalType": "uint256",
          "name": "",
          "type": "uint256"
        }
      ],
      "stateMutability": "view",
      "type": "function"
    },
    {
      "inputs": [
        {
          "internalType": "uint256",
          "name": "_guess",
          "type": "uint256"
        }
      ],
      "name": "guess",
      "outputs": [],
      "stateMutability": "payable",
      "type": "function"
    },
    {
      "inputs": [],
      "name": "owner",
      "outputs": [
        {
          "internalType": "address",
          "name": "",
          "type": "address"
        }
      ],
      "stateMutability": "view",
      "type": "function"
    },
    {
      "inputs": [
        {
          "internalType": "address",
          "name": "",
          "type": "address"
        }
      ],
      "name": "playerPoints",
      "outputs": [
        {
          "internalType": "uint256",
          "name": "",
          "type": "uint256"
        }
      ],
      "stateMutability": "view",
      "type": "function"
    },
    {
      "inputs": [],
      "name": "renounceOwnership",
      "outputs": [],
      "stateMutability": "nonpayable",
      "type": "function"
    },
    {
      "inputs": [
        {
          "internalType": "address",
          "name": "newOwner",
          "type": "address"
        }
      ],
      "name": "transferOwnership",
      "outputs": [],
      "stateMutability": "nonpayable",
      "type": "function"
    },
    {
      "inputs": [],
      "name": "withdraw",
      "outputs": [],
      "stateMutability": "nonpayable",
      "type": "function"
    }
  ],
  "bytecode": "0x60806040526402540be40060025534801561001957600080fd5b5060405161121e38038061121e833981810160405281019061003b9190610278565b80600073ffffffffffffffffffffffffffffffffffffffff168173ffffffffffffffffffffffffffffffffffffffff16036100ae5760006040517f1e4fbdf70000000000000000000000000000000000000000000000000000000081526004016100a591906102b4565b60405180910390fd5b6100bd816100d260201b60201c565b506100cc61019660201b60201c565b5061050b565b60008060009054906101000a900473ffffffffffffffffffffffffffffffffffffffff169050816000806101000a81548173ffffffffffffffffffffffffffffffffffffffff021916908373ffffffffffffffffffffffffffffffffffffffff1602179055508173ffffffffffffffffffffffffffffffffffffffff168173ffffffffffffffffffffffffffffffffffffffff167f8be0079c531659141344cd1fd0a4f28419497f9722a3daafe3b4186f6b6457e060405160405180910390a35050565b60004244336003546001436101ab9190610308565b406040516020016101c09594939291906103d0565b6040516020818303038152906040528051906020012060001c90506001600a826101ea919061045e565b6101f4919061048f565b6001819055506003600081548092919061020d906104c3565b919050555050565b600080fd5b600073ffffffffffffffffffffffffffffffffffffffff82169050919050565b60006102458261021a565b9050919050565b6102558161023a565b811461026057600080fd5b50565b6000815190506102728161024c565b92915050565b60006020828403121561028e5761028d610215565b5b600061029c84828501610263565b91505092915050565b6102ae8161023a565b82525050565b60006020820190506102c960008301846102a5565b92915050565b6000819050919050565b7f4e487b7100000000000000000000000000000000000000000000000000000000600052601160045260246000fd5b6000610313826102cf565b915061031e836102cf565b9250828203905081811115610336576103356102d9565b5b92915050565b6000819050919050565b610357610352826102cf565b61033c565b82525050565b60008160601b9050919050565b60006103758261035d565b9050919050565b60006103878261036a565b9050919050565b61039f61039a8261023a565b61037c565b82525050565b6000819050919050565b6000819050919050565b6103ca6103c5826103a5565b6103af565b82525050565b60006103dc8288610346565b6020820191506103ec8287610346565b6020820191506103fc828661038e565b60148201915061040c8285610346565b60208201915061041c82846103b9565b6020820191508190509695505050505050565b7f4e487b7100000000000000000000000000000000000000000000000000000000600052601260045260246000fd5b6000610469826102cf565b9150610474836102cf565b9250826104845761048361042f565b5b828206905092915050565b600061049a826102cf565b91506104a5836102cf565b92508282019050808211156104bd576104bc6102d9565b5b92915050565b60006104ce826102cf565b91507fffffffffffffffffffffffffffffffffffffffffffffffffffffffffffffffff8203610500576104ff6102d9565b5b600182019050919050565b610d048061051a6000396000f3fe6080604052600436106100905760003560e01c80639189fec1116100595780639189fec1146101325780639b211fc41461014e578063d24257c01461018b578063ee204abb146101b6578063f2fde38b146101f357610090565b8062819439146100955780633ccfd60b146100c2578063715018a6146100d95780638da5cb5b146100f05780638f528ce41461011b575b600080fd5b3480156100a157600080fd5b506100aa61021c565b6040516100b9939291906107dd565b60405180910390f35b3480156100ce57600080fd5b506100d761023c565b005b3480156100e557600080fd5b506100ee610294565b005b3480156100fc57600080fd5b506101056102a8565b6040516101129190610855565b60405180910390f35b34801561012757600080fd5b506101306102d1565b005b61014c600480360381019061014791906108a1565b6102e3565b005b34801561015a57600080fd5b50610175600480360381019061017091906108fa565b6104ec565b6040516101829190610927565b60405180910390f35b34801561019757600080fd5b506101a0610504565b6040516101ad9190610927565b60405180910390f35b3480156101c257600080fd5b506101dd60048036038101906101d891906108fa565b61050a565b6040516101ea9190610927565b60405180910390f35b3480156101ff57600080fd5b5061021a600480360381019061021591906108fa565b610553565b005b600080600042436001436102309190610971565b40925092509250909192565b6102446105d9565b61024c6102a8565b73ffffffffffffffffffffffffffffffffffffffff166108fc479081150290604051600060405180830381858888f19350505050158015610291573d6000803e3d6000fd5b50565b61029c6105d9565b6102a66000610660565b565b60008060009054906101000a900473ffffffffffffffffffffffffffffffffffffffff16905090565b6102d96105d9565b6102e1610724565b565b6002543414610327576040517f08c379a000000000000000000000000000000000000000000000000000000000815260040161031e90610a02565b60405180910390fd5b6000811180156103385750600a8111155b610377576040517f08c379a000000000000000000000000000000000000000000000000000000000815260040161036e90610a6e565b60405180910390fd5b6005600460003373ffffffffffffffffffffffffffffffffffffffff1673ffffffffffffffffffffffffffffffffffffffff16815260200190815260200160002060008282546103c79190610a8e565b92505081905550600060015482149050801561043557600f600460003373ffffffffffffffffffffffffffffffffffffffff1673ffffffffffffffffffffffffffffffffffffffff168152602001908152602001600020600082825461042d9190610a8e565b925050819055505b7fcfbda218c98934beefa95245526f54a46017a4fb99deb929697333c93441ce1233838360405161046893929190610add565b60405180910390a17f900825d4808e50002c1a3614c809eb06d2d7142338f0dec06ed9a4057c8a8c9933600460003373ffffffffffffffffffffffffffffffffffffffff1673ffffffffffffffffffffffffffffffffffffffff168152602001908152602001600020546040516104e0929190610b14565b60405180910390a15050565b60046020528060005260406000206000915090505481565b60025481565b6000600460008373ffffffffffffffffffffffffffffffffffffffff1673ffffffffffffffffffffffffffffffffffffffff168152602001908152602001600020549050919050565b61055b6105d9565b600073ffffffffffffffffffffffffffffffffffffffff168173ffffffffffffffffffffffffffffffffffffffff16036105cd5760006040517f1e4fbdf70000000000000000000000000000000000000000000000000000000081526004016105c49190610855565b60405180910390fd5b6105d681610660565b50565b6105e16107a3565b73ffffffffffffffffffffffffffffffffffffffff166105ff6102a8565b73ffffffffffffffffffffffffffffffffffffffff161461065e576106226107a3565b6040517f118cdaa70000000000000000000000000000000000000000000000000000000081526004016106559190610855565b60405180910390fd5b565b60008060009054906101000a900473ffffffffffffffffffffffffffffffffffffffff169050816000806101000a81548173ffffffffffffffffffffffffffffffffffffffff021916908373ffffffffffffffffffffffffffffffffffffffff1602179055508173ffffffffffffffffffffffffffffffffffffffff168173ffffffffffffffffffffffffffffffffffffffff167f8be0079c531659141344cd1fd0a4f28419497f9722a3daafe3b4186f6b6457e060405160405180910390a35050565b60004244336003546001436107399190610971565b4060405160200161074e959493929190610bc7565b6040516020818303038152906040528051906020012060001c90506001600a826107789190610c55565b6107829190610a8e565b6001819055506003600081548092919061079b90610c86565b919050555050565b600033905090565b6000819050919050565b6107be816107ab565b82525050565b6000819050919050565b6107d7816107c4565b82525050565b60006060820190506107f260008301866107b5565b6107ff60208301856107b5565b61080c60408301846107ce565b949350505050565b600073ffffffffffffffffffffffffffffffffffffffff82169050919050565b600061083f82610814565b9050919050565b61084f81610834565b82525050565b600060208201905061086a6000830184610846565b92915050565b600080fd5b61087e816107ab565b811461088957600080fd5b50565b60008135905061089b81610875565b92915050565b6000602082840312156108b7576108b6610870565b5b60006108c58482850161088c565b91505092915050565b6108d781610834565b81146108e257600080fd5b50565b6000813590506108f4816108ce565b92915050565b6000602082840312156109105761090f610870565b5b600061091e848285016108e5565b91505092915050565b600060208201905061093c60008301846107b5565b92915050565b7f4e487b7100000000000000000000000000000000000000000000000000000000600052601160045260246000fd5b600061097c826107ab565b9150610987836107ab565b925082820390508181111561099f5761099e610942565b5b92915050565b600082825260208201905092915050565b7f496e636f72726563742062657420616d6f756e74000000000000000000000000600082015250565b60006109ec6014836109a5565b91506109f7826109b6565b602082019050919050565b60006020820190508181036000830152610a1b816109df565b9050919050565b7f4e756d626572206d757374206265206265747765656e203120616e6420313000600082015250565b6000610a58601f836109a5565b9150610a6382610a22565b602082019050919050565b60006020820190508181036000830152610a8781610a4b565b9050919050565b6000610a99826107ab565b9150610aa4836107ab565b9250828201905080821115610abc57610abb610942565b5b92915050565b60008115159050919050565b610ad781610ac2565b82525050565b6000606082019050610af26000830186610846565b610aff60208301856107b5565b610b0c6040830184610ace565b949350505050565b6000604082019050610b296000830185610846565b610b3660208301846107b5565b9392505050565b6000819050919050565b610b58610b53826107ab565b610b3d565b82525050565b60008160601b9050919050565b6000610b7682610b5e565b9050919050565b6000610b8882610b6b565b9050919050565b610ba0610b9b82610834565b610b7d565b82525050565b6000819050919050565b610bc1610bbc826107c4565b610ba6565b82525050565b6000610bd38288610b47565b602082019150610be38287610b47565b602082019150610bf38286610b8f565b601482019150610c038285610b47565b602082019150610c138284610bb0565b6020820191508190509695505050505050565b7f4e487b7100000000000000000000000000000000000000000000000000000000600052601260045260246000fd5b6000610c60826107ab565b9150610c6b836107ab565b925082610c7b57610c7a610c26565b5b828206905092915050565b6000610c91826107ab565b91507fffffffffffffffffffffffffffffffffffffffffffffffffffffffffffffffff8203610cc357610cc2610942565b5b60018201905091905056fea2646970667358221220edbd85ebe194012b76e5be7a4859f4fff4c1d4d7c68eecfe984ecc5cbc58f06e64736f6c634300081b0033",
  "linkReferences": {},
  "deployedLinkReferences": {}
}